:020000022000DC
:10600000E8A90020B9DD020013560400E9DD020012
:10601000E9DD0200E9DD0200E9DD02000000000028
:10602000000000000000000000000000B9DB0200DA
:10603000E9DD02000000000071DB02006B44040097
:1060400079DD020011C4030079DD020079DD020070
:1060500079DD020079DD020079DD020079DD0200E0
:1060600079DD020079DD020079DD020079DD0200D0
:1060700079DD020079DD020079DD020079DD0200C0
:1060800079DD020079DD020079DD020079DD0200B0
:1060900079DD020079DD020079DD020079DD0200A0
:1060A00079DD020079DD020079DD020079DD020090
:1060B00079DD020079DD020079DD020079DD020080
:1060C00079DD020079DD020079DD020079DD020070
:1060D00079DD020079DD020079DD020079DD020060
:1060E00079DD020079DD020079DD020079DD020050
:1060F00079DD020079DD020079DD020079DD020040
:1061000053B94AB9002908BF00281CBF4FF0FF311E
:106110004FF0FF3000F06EB9ADF1080C6DE904CE20
:1061200000F006F8DDF804E0DDE9022304B0704772
:106130002DE9F047089D0E4604468C46002B40F0A2
:1061400081808A42174645D9B2FA82F24AB1C2F139
:10615000200106FA02F320FA01F1974041EA030C0C
:1061600094404FEA174E230CBCFBFEF6B9B20EFB6F
:1061700016CC43EA0C4306FB01F0984209D9FB1800
:1061800006F1FF3C80F01581984240F21281023EF8
:106190003B441B1AA4B2B3FBFEF00EFB103344EADF
:1061A000034400FB01F1A14209D93C1900F1FF337E
:1061B00080F00181A14240F2FE8002383C44641A22
:1061C00040EA064000211DB1D4400023C5E9004348
:1061D000BDE8F08702B9FFDEB2FA82F2002A4FD1A1
:1061E000CB1B4FEA174E1FFA87F80121B3FBFEFCC9
:1061F000260C0EFB1C3346EA034608FB0CF3B342A5
:1062000007D9BE190CF1FF3002D2B34200F2EB8085
:106210008446F61AA3B2B6FBFEF00EFB106643EA04
:10622000064408FB00F8A04507D93C1900F1FF33EC
:1062300002D2A04500F2D2801846A4EB080440EA3E
:106240000C40C0E78B4208D9002D00F0AF80002140
:10625000C5E900060846BDE8F087B3FA83F10029D6
:1062600049D1B34202D3824200F2BB80841A66EB6A
:10627000030301209C46002DAAD0C5E9004CA7E7E6
:10628000C2F120039740D8409140DE404FEA174EBC
:1062900008434FEA104CB6FBFEF11FFA87F80EFBDD
:1062A00011664CEA064601FB08F3B34204FA02F415
:1062B00009D9BE1901F1FF3C80F08E80B34240F253
:1062C0008B8002393E44F31A86B2B3FBFEF00EFB1C
:1062D000103346EA034600FB08F3B34207D9BE1960
:1062E00000F1FF3C74D2B34272D902383E44F31A33
:1062F00040EA01417AE7C1F1200703FA01F422FAEA
:1063000007F31C4320FA07F906FA01F34FEA144C8D
:10631000FE4049EA03094FEA1943B6FBFCFE1FFAA7
:1063200084F80CFB1E6643EA06460EFB08FAB245EB
:1063300002FA01F200FA01F308D9A6190EF1FF30B2
:1063400048D2B24546D9AEF1020E2644A6EB0A0663
:106350001FFA89F9B6FBFCF00CFB106649EA064609
:1063600000FB08F8B04507D9A61900F1FF3C2DD273
:10637000B0452BD90238264440EA0E40A6EB080669
:10638000A0FB02894E45C446CE4618D315D075B33E
:10639000B3EB0C0266EB0E0606FA07F722FA01F3DE
:1063A000CE401F43C5E90076002111E72946284663
:1063B0000EE76646EDE6184601E74345E7D2B8EB3F
:1063C000020C69EB04040138A646E0E76046D3E717
:1063D00060468CE78646B9E7614674E702383C447C
:1063E0002BE7084647E7ACF1020C3E4411E729468B
:1063F000EEE600BF704700BF73B53E4DD5F82431BF
:10640000996811F001011FD101AA40F6034008F07C
:1064100003FD044600286AD1019B9B681B7883B961
:1064200005F1980318461FF0ACFBBFF35B8F00F03B
:10643000050053E8002F43E800010029F9D1BFF31C
:106440005B8F019818F082FD01AA002141F2030040
:1064500008F0E2FC0446002849D1019B26489968CF
:10646000082201311FF015FA019818F06FFD21463E
:1064700001AA41F2010008F0CFFC0446002836D101
:10648000019883685A7885F83820D9789A7842EA52
:1064900001226A871A7985F83920197ADA7942EA6D
:1064A0000122AA875A799B7942EA0323EB8718F0E5
:1064B0004DFD214601AA41F2020008F0ADFC044660
:1064C000A8B9019B0D489968402201311FF0E1F9FC
:1064D00095F86A30019843F0060385F86A3018F0A1
:1064E00035FD95F844305A060AD46FF01204204660
:1064F00002B070BD000000204000002048000020D5
:10650000214601AA42F2030008F086FC0446002856
:10651000EDD1019BB2489968082201311FF0B9F909
:10652000019818F013FD214601AA42F2020008F07A
:1065300073FC04460028DAD1019B9B68B3F8012064
:10654000A5F8CC2091B221B1DA78A648114622F004
:106550003CFD019818F0FAFC95F8446016F020060E
:1065600000F0198195F864301B0711D501AA0021AC
:1065700042F21C0008F050FC04460028B7D10198F4
:10658000836853F8012F5B68C5E92A2318F0DEFC05
:1065900095F8A0309E0623D50DF1020168461FF044
:1065A000CBFC04460028A2D1042142F2240008F0CA
:1065B000D9FB0646002800F0F5800421083021F0C0
:1065C000DDFEBDF800300380BDF802304380224676
:1065D000314642F2240008F01FFC0446002886D110
:1065E00095F8A0305C0610D501AA002142F22A00DD
:1065F00008F012FC044600287FF479AF0198836804
:106600005B7885F8E83018F0A1FC082142F201001F
:1066100008F0A8FB0446002800F0C48008210844C4
:1066200021F0ACFE95F8A01011F0400F024640F2A8
:10663000022308BF032388074CBF43F02C0043F01C
:106640000C008B0695F8A13048BF40F0400013F0D5
:10665000090F95F86A3018BF40F4006003F0060394
:10666000CE0748BF40F01000062B08BF40F4C070B2
:1066700000211FF0A2FB2146002242F2010008F097
:10668000CBFB044600287FF432AF95F844309806DF
:106690001ED4B5F8CC10D9B901AA41F2050008F012
:1066A000BBFB044600287FF422AFB5F8CC3063B9B9
:1066B000019B9B685A78997842EA0122A5F8CC2080
:1066C0009A884848114622F080FC019818F03EFC58
:1066D000082140F6014008F045FB0446002861D03F
:1066E0000821084421F04AFE95F8A030D907024657
:1066F0006DD539A1D1E900011FF05FFB21460022D1
:1067000040F6014008F088FB044600287FF4EFAE15
:10671000014601AA4FF6014008F07EFB044648BB43
:10672000019818F013FC214601AA4FF6024008F028
:1067300073FB0446F0B9019B2B4899680222013192
:106740001FF0A7F8019818F001FC95F889305B0755
:1067500010D501AA21464FF6034008F05DFB48B969
:10676000019B22489968012211441FF092F8019878
:1067700018F0ECFB0AF0AEF8044600287FF4B7AE40
:10678000EB79002B3FF4B3AE042119481FF04DFA0A
:1067900008F094FFABE6022140F66D4008F0E2FA03
:1067A000044610B96FF03604A1E60221083021F04A
:1067B000E5FD0123037046702146324640F66D40E8
:1067C00008F02AFB044600283FF4CCAE8FE60948C7
:1067D0004FF0005190E700BF908800020080002039
:1067E000A0000020D00000208900002088000020A8
:1067F00098000020108800022DE9F04FB14C94F869
:10680000D6608FB006F00106002800F0CA81CEBB2A
:1068100094F87C7094F8290094F82C204FF0270904
:106820002D2309FB074700F0030019FB0239FF2362
:1068300084F82A3015F036F894F8D600410707F1AD
:106840007D0704EB090800F1268114F809003146A0
:10685000C0F380100EF096FA06220146054608F1B4
:1068600002001FF016F829460622B81C1FF011F886
:1068700014F809305A060AD413F00E0F40F0E380E2
:10688000636A93B10C2630460FB0BDE8F08F062145
:1068900008F102000CF0D0FE002800F02F8214F85E
:1068A000093013F00E0FEBD0CDE010F083FC8246E0
:1068B000002800F04A8210F089FC8346002800F08E
:1068C0005D8211F0B1FE0546002800F054824FF6BB
:1068D000FF73806FAB8505F11C030B93002800F05C
:1068E000308205F16C0205F168010CF0B1FEB5F8DB
:1068F0006420754995F83DE095F8DC0095F840C0B6
:10690000C5F830A10A4042F4887295F8261142F089
:1069100001020EF03F0E6EF07F0E20F0030021F01A
:106920000301A5F86420002262F3000C4FF01B1352
:1069300085F83DE085F8DC0085F826116348644958
:1069400085F83F204FF0060EC5E913226A866A6378
:106950006A65A5F8C820A5F8CC20A5F8E82085F838
:10696000EA20C5F80021A5F80421A5F81821C5F8EA
:106970002021A5F8242185F82F21AA67EB6585F849
:1069800040C02866A5F8C4E0C5F81C11A5F87C2015
:1069900095F872E195F89AC195F87E0095F8521134
:1069A000A5F8502162F3C30C62F3041E21F0070125
:1069B00020F01F00A5F87021A5F89821A5F8A421C2
:1069C00085F89AC185F872E185F8521185F87E0044
:1069D00012F094F9A5F8D60012F096F9D5F8A8317E
:1069E0003C49A5F8D8001940C5F8A81112F092F951
:1069F00095F8AC1160F3020185F8AC1112F090F932
:106A0000C4E933AB0B9B636295F8AC1195F820C0D9
:106A1000ED610301002203F0700321F078010B43C4
:106A200062F3000CC5E96E22C5E96C22C5E90522B6
:106A3000C5F8C02185F8AC3185F820C016F006F9FC
:106A4000002840F0678194F828300121C3F3420305
:106A50000DA88DF834300CF073FF002800F09680FC
:106A600014F8093003F00F03022B00F1FF3233D08A
:106A7000012B00F0538178781030C100002B00F01A
:106A80003F81062B00F07F814FF4DA704FF41B71C9
:106A900000FB02102BE0C0F3C000324604F1D70126
:106AA00015F0E2F8FF2884F82A0002D0304614F0EE
:106AB00099FF4146034814F00FFF0248394614F08D
:106AC0000BFFD5E6784A002080F8FFFF4801480117
:106AD0007F4901000000FFF698F801301033DB0019
:106AE00000FB03F000F5AA70642303FB020094F896
:106AF0002070B14AE4610025312365F30007A0FB53
:106B00000201236084F82070A9A3D3E90023C4E91B
:106B10000555C4E90155FFF7F3FAB4F8D480E060F5
:106B20000EF02AF90746B8F1000F08D114F8095001
:106B300005F00F05A5F10105B5FA85F56D0994F885
:106B40002820E36865F3000212F0010584F828208C
:106B500000F08580DFF874929849049300200225A4
:106B60000DF1300801930591CDE907980321CDE996
:106B7000020006942A4600903B460C950EF04AF817
:106B8000414610F0D1FB002800F0A580636A002B7D
:106B90003FF478AE10F0DAFE0C2630460FB0BDE8B8
:106BA000F08F002E3FF46EAE204610F0CBFB8442F7
:106BB0000CD0834A834984484FF4E5631CF063FB9F
:106BC000404080F311884FF0030002DF94F8283032
:106BD000D8070DAD0ED502220D9203217B4B0095F7
:106BE000012200200EF082F8294610F09DFB0028BB
:106BF00040F0D38002220321744B009500200D92B7
:106C00000EF074F8294610F08FFB002840F09F80AA
:106C10006F4810F0D3FB002840F085806D4810F0DD
:106C20009DFB84420CD0664A6649674840F24A732D
:106C30001CF029FB404080F311884FF0030002DF75
:106C4000636A0BB110F082FE94F8D63000266FF321
:106C50000003304684F8D6300FB0BDE8F08F5E48B0
:106C60005E4ADFF868E1DFF854C10694A8FB000132
:106C70004FF0910909FB081103F24718C2F8008090
:106C80004FF00209049309920DF1300848A3D3E9AB
:106C900000234FF6FF7ACDE907E80295CDF8309052
:106CA000CDF814C0CDF80CA0FFF72AFA4A46CDE97A
:106CB00000503B46284603210DF056FF414610F098
:106CC00033FB00287FF462AF94F8D63043F0010321
:106CD00084F8D630D7E5424905914AF2D83200927D
:106CE000CDE90798CDE90300CDE9010006943B46C4
:106CF000012203210C950DF08DFFDFE71226C2E57E
:106D000098F801001030C00000F54D73194400F5EB
:106D10009A70BDE610F01AFE0326B4E54FF4F27047
:106D20004FF47F71B4E6264A2E49274840F2477354
:106D30001CF0A9FA404080F311884FF0030002DFF5
:106D40006CE705F17000A867CBE507269BE52148B5
:106D500010F004FB84423FF495AD40F24173184AB1
:106D6000184919481CF08FFA404080F311884FF001
:106D7000030002DF86E5584610F02EFA504610F068
:106D80001FFA07267FE598F801301033DB0003F582
:106D90004D70014403F59A707AE60E4810F0DEFA61
:106DA00084423FF46FAD40F23373D8E7AFF3008015
:106DB0008D49FD1A0700000000CA9A3BC176030006
:106DC00044A3040034A4040024A104001D730300A0
:106DD000944A0020784A0020002AE784584B00207B
:106DE000C978030054A204002DE9F04F0446808DB9
:106DF0004FF6FF7398428DB00D46164600F089801D
:106E000094F8E92094F8E80082420ED0801A00F04D
:106E1000030002281BD094F82D2194F82C319A42BB
:106E200030D100200DB0BDE8F08F94F852C11CF0B5
:106E30000108F0D194F8051194F804318B4200F068
:106E4000A983901E012384F8E90084F8EA3094F8BD
:106E5000983194F899219A4206D094F89A2102F038
:106E60000601042900F0DA8394F8EA707B1E052BF2
:106E700000F28283DFE813F07000190395028003AB
:106E80004303DA0130480CF08DFB58B394F82C31F1
:106E900084F82D310379022243F003034271037118
:106EA000C271D4F8B03194F82E2102722BB394F849
:106EB0005221910721D494F8AB21D2071DD4D4F8E4
:106EC000BC21934204BF1A68C4F8BC21D4F8B42191
:106ED000B2B91A68026018600368C4E96D000BB9A2
:106EE000C4F8C001B4F8CC0000289AD1B4F8C63078
:106EF000012B1CD9A4F8CC3093E7D4F8B421E2B12B
:106F0000D4F8B8311A6802601860C4F8B801036890
:106F1000E5E70E4A0E490F4840F2F3231CF0B3F99F
:106F2000404080F311884FF0030002DF68E701332F
:106F3000A4F8CC300DB0BDE8F08F0360C4E96C005C
:106F4000C4F8B801CBE700BFDC54002040A4040023
:106F5000A8A5040024A10400A74F3B68002B00F063
:106F60000585B4F83680628E94F806319044B044BA
:106F700013F003031FFA88F840F0EE83B4F8EC90A6
:106F8000A8EB09021FFA82FB12043FF544AF94F804
:106F9000701194F8712194F8040184F805018A4273
:106FA00094F8E80084F8E90009D094F8722102F01E
:106FB0000702052A04BF84F87111A4F8CC303B689D
:106FC0009C4204BF00233B60D4F80071002F00F006
:106FD0009D853868002800F09985B4F80831E28D65
:106FE0004168C4F800119342B4F80A11B4F80CC116
:106FF00000F0E086A28DFA804FF00C0E0022FB8399
:107000003984A7F822C087F804E03A77394610F0AF
:10701000E9F810F0F1F82368002B09DAD4E901123D
:1070200023F000438A422CBFAD186D182360ED1A7F
:10703000E38DB4F8087113FB0BF39BB2B3FBF7F1CC
:1070400017FB01F292B293421FFA81FA80F04C854D
:10705000D31A6A4840F2E24202FB03F3A3FB0001A9
:1070600063A3D3E90023FFF74BF820F07F400544EA
:10707000638EA9EB08081E4494F93D30D044B04417
:1070800040F2E249002BA4F8328009FB07F7C0F276
:107090004D855B4A5B495C4840F624131CF0F3F8CD
:1070A000404080F311884FF0030002DF4FF00008EA
:1070B0003E46B4F80C21B4F80A11544B54482186CA
:1070C00042F2107C0CFB02723B443844B3FBF7F3F2
:1070D00001F1060C013AB2FBF7F2B0FBF7F798B2F8
:1070E000A4F8C6206045B4F80821A4F8D200A4F89A
:1070F000CA70E28502DD401A063880B294F8063183
:10710000A4F8CE005B0744BF0023A4F8C8300221D6
:10711000012017F099FC00220221814601200CF089
:10712000E5FA3C494FF4E47220460CF071FAC21CB7
:107130005FFA82FA384B00945246012100200DF08C
:10714000D5FD30F002030CD02D4A34492E4840F6CC
:1071500053131CF098F8404080F311884FF003005F
:1071600002DF264BA6FB0367304621A3D3E90023A9
:107170003946FEF7C5FF2A4AE368049320F07F4BA7
:10718000ABFB0223072000FB0B33B01A67EB0301B4
:10719000089406944FF47A7200240023214F224E63
:1071A000079705960394FEF7ABFF2B46CDE901B098
:1071B000CDF800802046524601210DF02BFD30F025
:1071C00002030CD00E4A15490F4840F66D131CF00F
:1071D0005AF8404080F311884FF0030002DFB9F104
:1071E000000F40F000866FF047001BE6AFF3008011
:1071F0008D49FD1A070000006054002000CA9A3B28
:1072000040A4040084A1040024A104007FC3C90198
:10721000FF596202784B0020F981030020A5040089
:107220008D49FD1AA18103003DB20300E38E628EF9
:1072300094F8EC5013441E44EF07B6B2AB4600F18D
:10724000F682B4F8EE20B61A37043FF5E4AD94F8B0
:10725000DC2094F8648094F865A094F8E810B4F801
:10726000627084F8E910D60708F007080AF0070AE8
:1072700040F1C285D4F81C21100540F1BD85B4F859
:10728000D890B9F5296F28BF4FF42969B9F5A47FC3
:107290004FF4296338BF4FF4A4790B9315F01C0FFA
:1072A00040F01D86B4F8606015F0E00F0CD094F843
:1072B000652094F85E00690961F3020284F8652094
:1072C0000B9A10F00DFE074694F8AC2194F8641068
:1072D000D4F80051C2F3C00262F3C30184F8641011
:1072E000002D00F0E3862868002800F0DF8694F87F
:1072F000641094F865204368C4F800311BF0020F55
:10730000C1F3020EC2F3020C01F0070102F0070202
:1073100002D1884501F03E80A38DEB80102200232E
:1073200085F81DE085F81EC02A712B7729460FF0DD
:1073300059FFD4F80051002D00F0D58628680028A8
:1073400000F0D186B4F860304268C4F80021B3423E
:1073500009D34B4507D8B4F86230BB4203D30B9A2C
:10736000934241F22B80A4F86060A4F862702B7FF6
:10737000A28DEA8043F003030221092229712B77B1
:107380006A77B4F85E30B4F85C202B841523AA84A5
:10739000EB7729466F84EE840FF024FF0FF02CFF6B
:1073A00039E594F8EC3013F0030500F0848294F989
:1073B0003D30002BBFF62FAD012D7FF42CADBB4827
:1073C0000CF0F0F8054600283FF425AD03790D22B6
:1073D00043F00303042700F1080603714271C771EB
:1073E0000C21304615F032FA3146082204F1F6003D
:1073F0001EF04FFA3A4605F1100104F19C001EF010
:1074000048FAD4F8B031002B00F0E28694F852210B
:10741000900700F1DD8694F8AB21D10700F1D88602
:10742000D4F8BC21934204BF1A68C4F8BC21D4F834
:10743000B421002A01F02D81D4F8B8311A682A60ED
:107440001D60C4F8B8512B68002B01F0BF800FF00D
:10745000F7FE054600283FF4DEAC2B7FA28DEA80C4
:1074600043F003030226172103222B776977EA777B
:1074700004F2551108222E7105F120001EF009FAC0
:1074800094F8533185F8283094F8543185F8293030
:10749000286829460FF0A6FE0FF0AEFE94F8EC30F7
:1074A00066F3010384F8EC30B5E4E38E618E94F862
:1074B000EC200B441E44D707B6B200F1FF80B4F8AD
:1074C000F230F61A35043FF5A6AC94F8E83084F8AB
:1074D000E93004F13805052204F1ED0128461EF0DB
:1074E000D8F9284605210CF02BFA94F83D300122FA
:1074F00060F3050384F83D3084F8C4218BE46B48C5
:107500000CF050F800283FF486AC94F8E83084F88A
:10751000E930012302794371D4F8B03142F003021B
:1075200012210271C171002B00F0D38294F8522114
:10753000910700F1CE8294F8AB21D20700F1C98205
:10754000D4F8BC21934204BF1A68C4F8BC21D4F813
:10755000B421002A01F05280D4F8B8311A680260D0
:107560001860C4F8B8010368002B00F0B484B4F8C4
:10757000CA30A4F8CC304EE44D4A4E494E4840F251
:1075800079331BF080FE404080F311884FF00300F8
:1075900002DF40E494F8193194F81871BB4253D1DA
:1075A00094F8253194F82471BB4200F01183DB1B61
:1075B000DF077FF530AC94F82631D80740F14187DA
:1075C0009B0740F12B870FF03BFE014600B394F878
:1075D000243184F82531037FA28DC28043F0030358
:1075E0000B77022006220C2308714A77CB7794F898
:1075F0002701B4F82821B4F82A31A1F8233081F802
:107600002000A1F8212008680FF0ECFD0FF0F4FD38
:1076100094F8E80094F8E920FFF7F8BB02F00701BE
:10762000062901F2868101A050F821F0017A0200BA
:10763000696E0200696E0200696E020073790200D1
:1076400073790200696E0200DB1BD8077FF5E3AB9C
:1076500094F8DC1011F0010700F0E2830FF0F0FD68
:1076600007460028D4D094F8183184F81931037FE4
:10767000A28DC28043F003030922022041463B77DA
:1076800038717A77FA7707F1200008221EF02CF97A
:10769000D4F8203187F82030C3F307221B0C87F879
:1076A000212087F822303946ADE700BFDC540020A6
:1076B00040A4040084A1040024A10400CE480BF0DF
:1076C00071FF054600283FF4A6AB238E027994F89B
:1076D000EC101E44B31DA4F8F2306FF30001012337
:1076E00042F00302082084F8EC102A716871EB71F3
:1076F000052204F1ED0128181EF0CBF8D4F8B031C2
:10770000B4F8F220A5F80D20002B00F0C98094F801
:107710005221910700F1C48094F8AB21D20700F107
:10772000BF80D4F8BC21934204BF1A68C4F8BC21BE
:10773000D4F8B421002A00F07487D4F8B8311A685C
:107740002A601D60C4F8B8512B68002B7FF463AB2E
:10775000C4F8C051FFF75FBB01200FF053FD064690
:1077600000283FF458ABA4480BF01CFF0546002846
:107770003FF451AB0FF064FD238E326894F806019C
:107780004344063399B2D4F8003153602A79C4F8DF
:1077900000616FF301000C2384F80601A4F8EC10DB
:1077A00042F003026B71D4F81031D4F8B001934E5B
:1077B0002A710022EA71A6FB032394F81461B4F83D
:1077C00008212E72C3F38F23B4F80A61A5F80B20A9
:1077D000B4F80C21A5F80F20A5F80D60A5F811103C
:1077E000A5F80930002800F00D8394F852319E0767
:1077F00000F1088394F8AB31D90700F10383D4F882
:10780000BC31984204BF0368C4F8BC31D4F8B43129
:10781000002B00F01187D4F8B8311A682A601D6077
:10782000C4F8B851286800287FF4F5AA90E7022030
:107830000FF0E8FC074600283FF4EDAA6E480BF075
:10784000B1FE054600283FF4E6AA94F8EC306FF349
:107850000003C3F38200C3F3421250EA020884F823
:10786000EC30DBB240F0B38594F8E820A4F8EE8069
:10787000980784F8E92000F17286434641460522C4
:107880006A7185F808802A796B72D4F8B031698101
:1078900042F0030218212A71E971002B7FF437AFFF
:1078A000D4F8B421002A7FF448AF2B60C4E96C55AA
:1078B000C4F8B85149E750480BF074FE064600285A
:1078C0003FF4A9AA94F93D30002B00F1040880F29E
:1078D0001A8494F87E301D0700F1068694F8ED5066
:1078E000002D00F09984037994F8DC2043F0030321
:1078F0000371D00740F1F285D4F81C31590740F1EB
:10790000ED85112203237572F27133727771D4F809
:10791000B031002284F8ED20002B00F0C78494F8E9
:107920005221920700F1C28494F8AB21D70700F1ED
:10793000BD84D4F8BC21934204BF1A68C4F8BC21AA
:10794000D4F8B421002A00F0E886D4F8B8311A68D7
:1079500032601E60C4F8B8613368002B00F01685F1
:1079600094F8E83084F8E930FFF755BA3C60FFF747
:10797000F8BA02F00702B4F89CC1B4F8A011B4F848
:107980009E91B4F8A281A4F85EC0042AA4F8621003
:1079900000F0AC8494F89A31062262F3020384F872
:1079A0009A31D4F80071002F00F08C8438680028D8
:1079B00000F088843B7F4268B4F82CE0C4F80021D2
:1079C00043F0030302223B774FF0090A1523A7F87F
:1079D00006E0A7F820C079843A71FB773946A7F80A
:1079E0002490A7F8268087F81DA00FF0FBFB0FF06E
:1079F00003FCFFF739BA00BFDC5400205917B7D198
:107A0000BD480BF0CFFD00283FF42EAA94F89A2130
:107A1000B4F89E11B4F8A231A4F8D6100127A4F846
:107A2000D83067F3020284F89A2109270279477156
:107A300094F8DC70D4F81CE1818142F003020271F9
:107A40001B224FF0140C00210272FA0780F807C0C5
:107A5000417240F1B9831EF4006F00F0B583B3F5B5
:107A6000296F28BF4FF42963B3F5A47F38BF4FF4C3
:107A7000A4734FF42961D4F8B0214181C381002A55
:107A800000F0268394F852319B0700F1218394F88B
:107A9000AB31DF0700F11C83D4F8BC319A4204BF3C
:107AA0001368C4F8BC31D4F8B431002B00F0E98578
:107AB000D4F8B8311A6802601860C4F8B8010268D6
:107AC000002A00F03E85B4F8CA30A4F8CC30FFF7A5
:107AD000CBB9D4F8B421002A7FF43EAD0360C4E9E9
:107AE0006C00C4F8B8013FE507FB113340F2E242F5
:107AF00082489BB202FB03F3A3FB00017CA3D3E902
:107B00000023FEF7FDFA2D1AFFF7B2BA7C4A7D4931
:107B10007D4840F6AF031BF0B6FB404080F3118870
:107B20004FF0030002DF3868FFF757BAE26C636C6E
:107B3000724E03FB1B23E36415F070FD804694F83E
:107B4000DC00C0F3820015F06DFD08EB000307FBBD
:107B500003F36E48E26C94F8141103F5742303F2F6
:107B60003F23A0FB03034FEA934B0BFB0AF07B0878
:107B70000244963B9A4228BF1A4609FB01FC4FF08B
:107B8000000EC4E91232A0FB060159A3D3E9002379
:107B9000C4F854C0C4F8E4E0C4F844B0FEF7B0FA46
:107BA000D4F8103184465A48A0FB0330800A09FB00
:107BB00000F0A0FB06014EA3D3E90023A5EB0C05C2
:107BC000FEF79EFAA7EB0B0620F07F48FFF771BA8D
:107BD00094F8717194F870319F4200F090814D4F8C
:107BE0003B68002B00F0DC849C427FF414A994F8DD
:107BF000723103F00703052B00F2B9860FF2040E71
:107C00005EF823F0197D02006F7C02001D7C0200EB
:107C10000D6E02000D6E02000D6E02001CF0020FD0
:107C20007FF4F9A80FF00CFB014600283FF4F0ACFC
:107C3000037F94F87221032060F30202034384F867
:107C40007221A08D0B77022718230F714B77B4F8A0
:107C50007421B4F87631C880B4F878010A84B4F895
:107C60007A214B840F238884CA84CB77CBE494F8A1
:107C70007381B8F1000F40F02C8594F93D30002B52
:107C8000C0F2BD8594F8723194F87C01C4F810817B
:107C9000052262F30203012284F8723184F8142170
:107CA000002800F00586B4F87431B3FBF0F31344F8
:107CB00013FB00F39BB294F8722194F80601A4F828
:107CC0000831C2F3C0039B0020F0070243F0020317
:107CD0001343B4F87801B4F87A2184F806310139F5
:107CE00084F80511A4F80A01A4F80C21FFF793B851
:107CF0008D49FD1A07000000DC54002000CA9A3BA1
:107D000040A40400C4A5040024A1040083DE1B4396
:107D10005917B7D160540020E248B4F83680B4F85F
:107D200032900BF03FFC014600283FF471AC94F810
:107D300072010A794FF0040C6CF3020042F0030266
:107D40004FF0180C84F8720108EB09030A7181F8EE
:107D500005C0B4F874C1B4F87601B4F87821A1F87C
:107D600008C03344B4F87AC148818A810F200022C8
:107D7000A1F811304FF0FF33C8710A74CA740A7544
:107D80004B758B75CB750B764B768B76CB760B77ED
:107D90004B778B772046A1F80EC010F0F3F8B4F8BB
:107DA000CA3094F8E80094F8E9203C60A4F8CC309C
:107DB000FFF72CB8228E8A427FF41CA940F2E242DF
:107DC00002FB03FA42F21072B4F8C6E002FB0CA206
:107DD000013AB2FBFAF292B296457FF40BA9032363
:107DE0003B71FFF713B90122104602210BF07EFC14
:107DF0006FF04700FFF716B84FF4A479CDF82C9038
:107E0000FFF74CBAD4F8B431002B7FF404AD2860EE
:107E1000C4E96C55C4F8B85100287EF4FCAF97E46F
:107E2000A0480BF0BFFB804600283FF4F1AB94F86C
:107E300019319D4AC4F81C21013B092284F81931EB
:107E4000427194F93D200379002AACBF08220E222A
:107E500043F00303C27108220371394610441DF038
:107E600043FDD4F81C3188F80830C3F307221B0CFB
:107E700088F8092088F80A30D4F8B031002B00F0D7
:107E8000B38194F85221910700F1AE8194F8AB21AF
:107E9000D20700F1A981D4F8BC21934204BF1A682B
:107EA000C4F8BC21D4F8B421002A00F0FA83D4F835
:107EB000B8311A68C8F80020C3F80080C4F8B88147
:107EC000D8F80030002B00F08583B4F8CA30A4F84D
:107ED000CC30FFF79DBBC4F8C001FFF748BB94F856
:107EE000642094F85C00C5F3820161F3020284F817
:107EF00064204A460FF0F4FF0646FFF7D5B994F820
:107F0000987194F89931BB4200F0FB8194F89A3152
:107F100003F00701062900F21B850FF2080C5CF83C
:107F200021F000BFCB7F02000D6E02000D6E02003B
:107F30000D6E0200417F0200417F02000D6E0200C3
:107F4000B4F89C21A4F85E2003F00702B4F8A01155
:107F5000B4F89E91B4F8A281A4F86210042A00F04B
:107F6000AE83062262F3020384F89A31D4F80071DA
:107F7000002F00F077833868002800F073833B7F80
:107F80004268B4F82CC0C4F8002143F003033B77E7
:107F9000022209237B773A71B4F86220B4F85E10AC
:107FA000398415237A84A7F806C0FB773946A7F8E9
:107FB0002490A7F826800FF015F90FF01DF994F81A
:107FC000E80094F8E920FEF721BF36480BF0EAFA02
:107FD000014600283FF41CAB94F89A21B4F89E01A6
:107FE000B4F8A231A4F8D6000127A4F8D83067F37A
:107FF0000202092784F89A210A794F7194F8DC70FB
:10800000888142F0030214204FF0000C0A71FF0730
:10801000D4F81C21C8714FF01B0081F809C0087208
:1080200040F14983100540F17F83B3F5296F28BFE4
:108030004FF42963B3F5A47F38BF4FF4A4734FF412
:108040002962D4F8B001CB81B2F5A47F38BF4FF4D8
:10805000A4724A81002800F0FA8294F852319B07FA
:1080600000F1F58294F8AB31DF0700F1F082D4F82B
:10807000BC31984204BF0368C4F8BC31D4F8B431B1
:10808000002B00F04F84D4F8B8311A680A601960E8
:10809000C4F8B8110B68002B7FF417AFC4F8C011F7
:1080A00013E700BFDC5400207F490100D74AD849BC
:1080B000D84840F628631BF0E6F8404080F311886A
:1080C0004FF0030002DF286894F8ECB0FFF70FB917
:1080D000D4F8B431002B7FF4EBAC0260C4E96C003F
:1080E000C4F8B801ECE4C94AC949CA4840F6546327
:1080F0001BF0C9F8404080F311884FF0030002DF05
:108100002868FFF71FB904F17F073B462A4604F1B0
:10811000EE0104F25D1015F041FF3946102204F122
:10812000A0001DF0B6FB082204F1980104F1B9008B
:108130001DF0AFFB94F8970094F8B82094F87E30C7
:1081400084F88F5043F0080365F3000042F0010209
:1081500084F8970084F87E3084F8905084F8915029
:1081600084F8925084F8935084F8945084F8955091
:1081700084F89650C4F8B0504146C4F8B45084F81E
:10818000B820204610F008F9D4F8B031002B37D0D1
:1081900094F85221920733D494F8AB21D7072FD407
:1081A000D4F8BC21934204BF1A68C4F8BC21D4F8A7
:1081B000B421002A7FF4C9AB1A6832601E603368AC
:1081C000C4E96D66FFF7C9BB4FF4A473194652E4C6
:1081D000D4F8B421002A7FF42FA92B60C4E96C5590
:1081E000C4F8B851FFF730B9D4F8B421002A7FF4AD
:1081F0005EAEC8F80030C4E96C88C4F8B88161E6A6
:10820000D4F8B421002A7FF4A0AB3360C4E96C66D3
:10821000C4F8B861FFF7A1BB04F17F073B462A46CB
:1082200004F1EE0104F25D1015F0B8FE394610229B
:1082300004F1A0001DF02DFB082204F1980104F1C7
:10824000B9001DF026FB94F8972094F8B81094F824
:108250007E3084F88F5042F0010265F3000143F054
:108260000803012084F8972084F8B81084F87E3041
:1082700084F8905084F8915084F8925084F8935088
:1082800084F8945084F8955084F89650C4F8B0500F
:10829000C4F8B45032797071D4F8B03142F00302AE
:1082A00005213271F171002B7FF439ABD4F8B42180
:1082B000002A7FF44AAB3360C4E96C66C4F8B86145
:1082C000FFF74ABB514A5249524840F6F8431AF068
:1082D000DAFF404080F311884FF0030002DF386876
:1082E000B4F85EC0B4F86210FFF764BBB4F8A42120
:1082F000002A40F0728184F89931A4F8CC20FFF76D
:1083000050BB94F8A83194F8A91199423EF483AD7A
:1083100094F8AA1101F00300032800F02682002837
:108320007EF479AD3C480BF03DF9014600283FF45E
:108330006FA994F8AA3194F8AC2194F8AB7101209C
:1083400060F30103C3F3820060F30202C3F342103F
:1083500060F30612C7F34007087984F8AA3167F37F
:10836000C30284F8AC21C3F3820C40F00300C3F3D2
:108370004213032716220871CA7181F808C04B7294
:108380004F71002220460FF0FDFD9EE5C4F8C0614C
:10839000FFF7E6BA92457EF4BFAF03232B7129465F
:1083A0000EF020FFD4F80051002D00F0CF81286896
:1083B000002800F0CB814368C4F8003103232B71FF
:1083C00029460EF00FFF0EF017FFFEF724BD238E97
:1083D0001E44B31DA4F8EE300EF032FF3B68D4F813
:1083E00000215A60C4F800710EF02AFF0368D4F827
:1083F00000215A6094F8EC30B4F8EE10C4F8000193
:10840000C3F382085B09FFF73ABA00BF40A4040037
:10841000C4A5040024A10400DC54002040F6173356
:10842000C54AC649C6481AF02EFF404080F311885D
:108430004FF0030002DF94F8E80094F8E920FEF71B
:10844000E5BCC0480BF0AEF800283FF4E1A894F872
:10845000252194F82631013A84F82521027943F048
:108460000103062184F8263142F003024171D4F859
:10847000B03102710B216FF00E020C2701724272B3
:1084800005214FF0FF32C7718172C2720273002B57
:1084900000F0BC8094F85221910700F1B78094F865
:1084A000AB21D20700F1B280D4F8BC21934204BFC3
:1084B0001A68C4F8BC21D4F8B421002A00F0228242
:1084C000D4F8B8311A6802601860C4F8B8010368BB
:1084D000002B7FF4FAACC4F8C001F6E40D2335722A
:1084E000F3710227FFF712BA414620460FF054FFFE
:1084F000D4F8B0314BB394F85221950725D494F8B1
:10850000AB21D00721D4D4F8BC21934204BF1A6810
:10851000C4F8BC21D4F8B421002A00F06A81D4F850
:10852000B8311A6832601E60C4F8B8613368002B35
:108530007FD094F8523123F0030384F85231FFF7CF
:108540000FBAC4F8C001FFF7BEBAD4F8B421002AAC
:10855000E5D13360C4E96C66C4F8B861E6E70EF0B3
:108560006FFE1023A28D87F81C803B7194F8643055
:108570003868FA80C3F302037B7794F86530C3F35D
:108580000203BB7739460EF02DFE0EF035FE94F84F
:10859000EC30B4F8EE10C3F382085B09FFF76FB953
:1085A00094F8723103F00703052B00F2E08101A279
:1085B00052F823F0197D02006F7C02001D7C02003E
:1085C000176E0200176E0200176E0200C4F8C05149
:1085D000FEF73DBFC4F8C08177E494F89A01B4F87F
:1085E000A671A4F89E21002363F3020084F89A0187
:1085F000A4F8A431A4F8A271FFF7D3B91A680260F5
:1086000018600368C4E96D00FEF7AEBFD4F8B4216A
:10861000002A7FF455AF0360C4E96C00C4F8B801C8
:1086200055E71A682A601D602B68C4E96D55FFF78D
:108630008CB8C4F8C0617CE703682B6005602868CB
:10864000C4E96D5500287EF4E6ABFFF781B8D4F895
:10865000B431002B7FF417AD0860C4E96C11C4F885
:10866000B81117E5344A3849354840F6F8431AF04E
:108670000AFE404080F311884FF0030002DF3868A3
:108680007DE41368036010600268C4E96D00FFF7C1
:1086900017BA1A682A601D602B68C4E96D55FEF789
:1086A000D3BE1A68C8F80020C3F80080D8F800309C
:1086B000C4E96D8806E44FF4A4731A46C1E4B4F823
:1086C000A421002A40F0E58084F89971A4F8CC2018
:1086D0004CE41C480AF066FF014600283EF498AFBF
:1086E000037943F003030B71112003220F23C87198
:1086F0004A710B7294F873314B72002220460FF0CE
:1087000041FC94F8703184F87131002394F8E8004A
:1087100094F8E9203B60FEF779BB1A6832601E606E
:10872000C4E96D66FFF718B9D2054FF4A47340F1A0
:10873000EF80A82285E400BF40A4040084A10400C7
:1087400024A10400DC540020C4A50400894A8A49FD
:108750008A4840F637631AF096FD404080F311884E
:108760004FF0030002DF286825E6080784F8A931E6
:10877000C1F3820340F1A88094F8AA31022161F389
:10878000840384F8AA3194F8AA315F064FEA5311A2
:1087900040F19280022161F3471384F8AA3194F8E2
:1087A000AA1194F864C094F8650094F8AB31C1F351
:1087B00082070CF0070C00F00700C3F38003BC45F0
:1087C00008BF00275B00B0EB511F43F001034FEAE5
:1087D000511108BF002143EA4113023A43EA8703DB
:1087E000062184F8E92084F8EC3084F8EA10FEF7DA
:1087F0003BBB1A6832601E60C4E96D6696E660484D
:108800000AF0D0FE014600283EF402AF0379182298
:1088100043F0030303714271B4F87421B4F8763164
:10882000B4F878010A81B4F87A214B811023888149
:10883000CA81CB7194F87C310B74B4F87E31B4F8F2
:108840008001B4F88221A1F81130B4F88431A1F884
:108850001300B4F88601A1F81520B4F88821A1F816
:108860001730B4F88A31A1F81D30A1F81900A1F829
:108870001B20204642460FF085FB94F8703194F897
:10888000E80094F8E920C7F8008084F87131FEF719
:10889000BDBA002161F30203A4F89E21B4F8A62119
:1088A00084F89A31A4F8A411A4F8A221FFF75EBBC2
:1088B000B4F87631FFF7FFB9C8070FD5012161F38E
:1088C000471384F8AA316AE7D90710D594F8AA317A
:1088D000012161F3840384F8AA3154E711F0040103
:1088E00018BF042161F3471384F8AA3157E713F046
:1088F000040310D094F8AA31042161F3840384F8AE
:10890000AA3140E71A6802601860C4E96D00DEE52C
:108910001A46FFF796BB94F8AA1163F3840184F812
:10892000AA1130E703680B600160C4E96D11FFF71D
:10893000B1BB104A134911484FF452631AF0A3FC1B
:10894000404080F311884FF0030002DFFEF78CBA3D
:10895000084A0C4909484FF452631AF094FC40400D
:1089600080F311884FF0030002DFFEF751BE40F69E
:10897000244355E540A40400C4A5040024A1040038
:10898000DC54002084A104002DE9F04F9C4695B0F2
:108990005CF80C6B1D46136886460C4660462E310B
:1089A000174605F1080A0322D3F80090CDF828E015
:1089B00005F11C081CF06DFF04F12A010422504649
:1089C0001CF067FF04F13A01052240461CF061FFEC
:1089D000404605210AF0B4FF95F8213000F03F0031
:1089E00060F30503012885F821300AD994F83F3057
:1089F00003F01F02053AC3F304010B2A85F8221085
:108A000002D915B0BDE8F08F3A6896F8DC10002066
:108A10009060B4F83480A5F8128094F8362094F869
:108A200037005B0942EA002263F38401AA82638E65
:108A300086F8DC10ADF8303014F0F0FD034696F8FF
:108A4000DC000B93C0F3820014F0ECFD0B9BDFF80D
:108A500028C394F83110AA8A40F2E24B0BFB08F8C5
:108A6000184408FB00F000F5742000F23F20ACFB36
:108A700000C04FEA580C800C0BFB01F1ACF1960CD6
:108A8000A862C5F82CC0E963218FB14BADF8361050
:108A900042F2107C0CFB0181AE48434402F1060C0B
:108AA0000139B3FBF8F3B1FBF8F1A6F8C61099B29F
:108AB00061454044A6F8D210B0FBF8F0A6F8CA0011
:108AC00002DD891A063989B2A6F8CE100422514671
:108AD00006F1E0001CF0DDFE237F04F11E0A514682
:108AE000C3F38013062212A88DF840301CF0D1FE8B
:108AF000237F4FF48072A28399F82A0097F812B06E
:108B0000C3F340128DF83C200B9213F095FB014605
:108B1000062204F12B00002940F0ED801CF0E4FE59
:108B200004F12503BBF1FF0F0E9304F11F0300F0C6
:108B3000EB801A465146584612F0ECFDA27F0E9883
:108B40000232A27712A906221CF0A3FE96F8DC30AE
:108B5000698AAA8AA286C3F3820384F83830BDF8F2
:108B60003630E386618630460FF06AFD2146288262
:108B7000E0807C680A980EF035FB2B8AE3800F2397
:108B800023710B9B2068002B00F0BA8095F809E058
:108B90002B7A95F80BC0A97A95F8212041EA0C218F
:108BA00043EA0E234B4042F0400201216B8485F8DA
:108BB0002120217721460EF015FB0EF01DFB95F8C4
:108BC0004900012100F0070013F0A0FF624A4FF0B6
:108BD000000A8346312300F25240A0FB02013360B9
:108BE000C6E901AA58A3D3E90023FDF789FAFC6876
:108BF000BDF83020AD6A20F07F4040F2E24303FB35
:108C0000023302215246F060A4F5AE7401201C44E8
:108C10000AF06CFD48460FF023F8821C4F4BCDF84C
:108C20000090D2B2504601210CF060F80128A8EB68
:108C30000508A4EB0B047FD099F82830DB0773D428
:108C400030460FF0FDFCDFF810B1A8FB0B893EA306
:108C5000D3E90023054649464046FDF751FA404A0C
:108C6000069620F07F4AAAFB0223072101FB0A3364
:108C700040F23D11BF6808913A4907913A49059180
:108C8000B8EB020069EB0301F368049300264FF48C
:108C90007A7200230396FDF733FA2BA3D3E900235E
:108CA0008446A4FB0B01CDE901ACFDF729FA03359D
:108CB00020F07F40EDB2313F3B4600902A463046DF
:108CC00001210BF0A7FF30F002030CD0274A2849FE
:108CD00028484FF49F731AF0D6FA404080F3118869
:108CE0004FF0030002DF0122104602210AF0FEFCD1
:108CF00015B0BDE8F08F04F124011CF0CAFD0FE7A8
:108D00009DF83C30237755E70E98119306220021F9
:108D10001CF0EAFD9DF84030A377119B12A918467C
:108D200006221CF0B6FD11E700230122009318462D
:108D300011460BF0DBFF83E70EF01CFB81453FF48F
:108D40007BAF12F057FA77E78D49FD1A0700000054
:108D50007FC3C901FF59620200CA9A3B21B20300D6
:108D60008D49FD1AC5B103003DB2030064A604009D
:108D700020A5040024A1040083DE1B4300000000A2
:108D80002DE9F041D0E90BC7D0F828800CEB07049F
:108D90003034A0450E46154618D81B4F18A3D3E90A
:108DA0000023ACFB0701FDF7ABF9A4EB080420F0AE
:108DB0007F40306012A3D3E90023A4FB0701FDF735
:108DC0009FF920F07F402860BDE8F0810E4C0CA395
:108DD000D3E90023A8FB0401FDF792F920F07F43BB
:108DE00007F130003360A0FB040105A3D3E90023A1
:108DF000FDF786F920F07F402860BDE8F08100BFD4
:108E00008D49FD1A0700000000CA9A3B00000000CF
:108E10002DE9F04F8FB00DF13701354F0B900DF16B
:108E200036000EF055FA9DF83730DFF8D8909DF8EF
:108E300036A00A930BF0A0FF3C68A4FB09452AA3C7
:108E4000D3E90023804629462046FDF759F90B9BBC
:108E5000069383467868274B0593002622A3D3E91F
:108E60000023A0FB0901CDE90766FDF749F9224B74
:108E70002BF07F49A9FB03BC20F07F40072303FBB5
:108E800009CCCDE90360B4EB0B0065EB0C014FF4AA
:108E90007A720023FDF734F90A9A0096CDE9019021
:108EA0004346032150460BF0B5FE30F0020415D1C5
:108EB000124A1348002319F05FFB68B19DF8372070
:108EC0009DF836000094234603210BF00FFF6FF04E
:108ED0003B000FB0BDE8F08FF868FAE76FF047008D
:108EE000F7E700BFAFF300808D49FD1A07000000CF
:108EF000085E00208DFC03008D49FD1A447B0B00A9
:108F0000185E002000CA9A3B38B50F4D04460BF09E
:108F100033FFA9680BF032FF0C49B0FBF4F40444B2
:108F2000686807A3D3E90023A0FB0101FDF7E8F877
:108F300020F07F40844294BF0020012038BD00BF54
:108F40008D49FD1A07000000085E002000CA9A3B08
:108F500007B520F01CF94FF47A730A46A0FB030111
:108F600003FB0211084AC30B43EA414313604FF469
:108F7000004200230548CDE9002319F0DFFD002061
:108F800003B05DF804FB00BFC8250020D00A002014
:108F90000949BFF35B8F51E8003F43F0010241E80C
:108FA00000200028F7D1BFF35B8FDB0703D4034811
:108FB00008391FF0C9BE7047E001002028250020B5
:108FC00008B5044B187800F069FABDE8084019F0BC
:108FD000D5BE00BF20860020044B1A78824202D002
:108FE0001870FFF7EDBF0020704700BF20860020FB
:108FF00008B520F0CCF84FF47A730A46A0FB0301C1
:1090000003FB0211C30B044A43EA414313600020EF
:10901000BDE80840FFF7E0BFC825002008B520F0F4
:10902000B6F84FF47A730A46A0FB030103FB021162
:10903000074AC30B126843EA41439B1A47F2305276
:10904000934204DDBDE808400120FFF7C5BF08BD1D
:10905000C825002030B5164D89B00022002301A993
:10906000284618F0B1FD08B109B030BD039CDDE918
:10907000010119F063FEB4FA84F4640904908DF8D8
:10908000144020F084F84FF47A730A46A0FB0301E1
:1090900003FB0211C30B43EA4143CA0BCDE906327D
:1090A00008AB13E90F0000F005FA19F067FED4E7EA
:1090B000800C00201FB583F00103CDE9011203935A
:1090C0000D4801A90022002318F02CFDBFF35B8F8F
:1090D0000A4951E8003F43F0010241E8002000281E
:1090E000F7D1BFF35B8FDB0703D4054808391FF0C6
:1090F0002BFE05B05DF804FB800C0020D425002079
:109100002825002038B518F077FB044680B10B4BBA
:109110000B4A0025C3E901251D60836809491B68C6
:109120009847A3689B6833B120469847284638BDC6
:109130006FF01500FBE71846F9E700BFCC250020CB
:1091400055900200B5900200084A52F820300133D1
:1091500042F82030064A0123834010780343DBB2F3
:109160001370044A00205370704700BFD8250020B8
:1091700021860020B50900200B4A52F82030002B30
:109180000FDD013B42F82030084A2BB90123834010
:10919000107820EA03001070054B12785A700020F6
:1091A00070476FF015007047D825002021860020F9
:1091B000B5090020034B1B781843034B587000205F
:1091C000704700BF21860020B5090020024B1A78A5
:1091D000024B00205A70704721860020B5090020FC
:1091E000A0F1E003072B03D82030C0B2FFF7ACBFDB
:1091F000064B062213F8011B19B1013AFAD10020DF
:10920000704703F8010C0028F7D0F8E7B8090020F0
:10921000A0F1E002072A10B4034604D8203010BCA5
:10922000C0B2FFF7A9BF064A0620002112F8014B81
:109230009C4208BF02F8011C0138F7D110BC7047EE
:10924000B80900200248082200211CF04DBB00BFD5
:10925000B609002010B50849002301EB4302B2F81B
:10926000014024B10133062BF7D1002010BDA2F834
:1092700001000028F6D0F8E7A809002030B5002347
:10928000074C194604EB43020133B2F80150854202
:1092900004BF51709170062BF4D1002030BD00BF87
:1092A000A809002002480C2200211CF01DBB00BFB1
:1092B000A909002000487047B50900200048704700
:1092C000A80900202DE9F041134B144EA3EB06082A
:1092D00007460D4606EBC106C8F3C708A84504DCDF
:1092E0000024384620F0D8F813E032683B689A42F0
:1092F0000AD1736838461B68984701280446EFD0A6
:10930000022804D00028ECD101350836E6E73D718B
:1093100000242046BDE8F08144B5040014B50400E3
:109320002DE9F8434668C7680546306818F064FAC6
:109330003860002848D096F8049096F80580C468F4
:10934000836848F400721B684946984700283ED15C
:109350002368012202FA09F118F0010F14BF0B4330
:109360008B43236003F032F81A4802F065FF04468D
:1093700038BB194919481FF0A9FE194802F0FEFE32
:109380007B7963B901233B711449164800220023FD
:1093900019F014FAAB681B680BB128469847F1889E
:1093A00079B14FF4004040F2E7360027E1FB006757
:1093B0004FF47A72002330463946FCF7A1FE19F0CB
:1093C0008FF82046BDE8F8836FF01504F9E76FF0D9
:1093D0000404F6E7E4010020E9930200F80E0020FF
:1093E000DCAD04002825002030B58BB0084C2046A9
:1093F00018F002FAC568074A23462821684604F097
:10940000B7FE0122291D684602F07EFE0BB030BD7A
:10941000E6AD0400F0AD040010B5064C20461FF088
:109420005DFE21460448BDE810404FF4F0120023D1
:1094300019F0C4B9F80E0020282500202DE9F743C3
:109440000C469046144901AA99461AF0DDFDE0B198
:10945000019FD7B9104818F0CFF9012CC66805460E
:1094600016D12246311D4846C047002806DB7471DC
:10947000347928462CB119F093FC384603B0BDE886
:10948000F08319F0A7FC2046F8E76FF00100F5E73C
:109490006FF01500F2E700BFE6AD040010B504461A
:1094A0000C2019F02FFC024A0260047210BD00BFAC
:1094B000B09804007FB56C4684E80F00182019F0BE
:1094C00021FC0546054B45F8083B064694E80F008D
:1094D00085E80F00304604B070BD00BFB4980400AA
:1094E0000268034B9A420CBF08300020704700BF4F
:1094F000B49804007FB56C4684E80F00182019F07A
:1095000001FC0546054B45F8083B064694E80F006C
:1095100085E80F00304604B070BD00BFB898040065
:1095200084B070B504AC84E80F00202019F0EAFB89
:109530000446084B44F8083B04AD06460FCD0FC463
:1095400095E8030084E803003046BDE8704004B0AD
:10955000704700BFBC9804000268034B9A420CBFDE
:1095600008300020704700BFBC98040013B56C465B
:1095700084E80300102019F0C5FB0246054942F8B3
:10958000081B034694E8030082E80300184602B073
:1095900010BD00BFC898040010B504460C2019F097
:1095A000B1FB024A0260047210BD00BFCC980400F7
:1095B00010B504460C2019F0A5FB024A02600472A3
:1095C00010BD00BFD098040010B5044668B9084922
:1095D0000A6842F001039A420B6004D0012019F09E
:1095E00082FC19F0CBFB204601E06FF0150010BDA6
:1095F000002600202DE9F0479146294A43180D46E0
:109600000C218AB001FB03230DEB0104804693E893
:109610000700DDE9126784E8070018F0EDF800287C
:109620003CD0CDE90685CDE90867039818F0E4F849
:109630008368D3F800A0BAF1000F09D00AAB13E990
:109640000300DDE906238DE803002046D047A8B9D2
:10965000B9F1000F15D0CDE90685CDE9086703986B
:1096600018F0CAF883685D68ADB10AAB13E903006E
:10967000DDE906238DE803002046A8470AB0BDE8CF
:10968000F087CDE90685CDE90867039818F0B4F8AE
:1096900083689D68E8E76FF02200EFE70120EDE7BF
:1096A00008990400F7B51E4604460E4B17460D46B2
:1096B00019B10D4A126843F8202053F824100020F5
:1096C00019F02EFC18B96FF0220003B0F0BDCDE9FF
:1096D00000762A4621460020FFF78CFF0028F4DDA3
:1096E000F1E700BF042600200026002007B5094B43
:1096F00009491A788DF80020162302FB0313019301
:1097000002AB13E90300FFF731FF03B05DF804EB90
:1097100019F034BB22860020258600200249034828
:10972000012202F0F1BC00BF2286002010AF04002D
:1097300070B503788AB004460E4607AD032B20D8D7
:10974000DFE803F002191B1D114928461CF057F8E9
:1097500063780493A3780393E378029323790193C6
:10976000637900930B4AA37905951E21304619F0C1
:1097700097FD0AB070BD0849E7E70849E5E70849E1
:10978000E3E7084A0A21284619F08AFDE0E700BF0E
:1097900023AF04004CAF04002AAF040031AF040033
:1097A0003BAF040045AF040010B5094C88B01CF075
:1097B00015FF6946FFF7BCFF206818B11CF0F1FEE9
:1097C00000232360034B00221A7008B010BD00BFB5
:1097D00008260020248600202DE9F0438BB00D469A
:1097E00016461F496A46044698461AF00DFCF8B121
:1097F0000098E8B10A2201A91BF088FF019B1F789D
:1098000057BB162D28D1C4B2042C25D8DFF85C90A4
:109810006C432A4609EB04014046B047002818DD96
:1098200004F10F0002A94844FFF782FF002010E076
:109830000C496A4620461AF0E7FB50B1009B002B0A
:10984000F4D1012D08D108492A464046B04700EA24
:10985000E0700BB0BDE8F0836FF01500F9E700BFD2
:109860006FAF040014AF040022860020258600207C
:10987000014600F10803BFF35B8F53E8002F42F06D
:10988000010043E8000CBCF1000FF6D1BFF35B8F81
:10989000D30702D401481FF057BA7047282500208B
:1098A00008B51CF09BFE074B1978074B162202FBEC
:1098B00001310F3107221BF0DCFFB0FA80F04009C4
:1098C00008BD00BF228600202586002010B588B084
:1098D00004461CF083FE6946FFF72AFF0548FFF7A0
:1098E000C7FF2046FFF7DCFF10B10348FFF7C0FFBA
:1098F00008B010BD3C0200203002002007B50A4B22
:1099000018780A4B162202FB003069460023072212
:109910000F300093CDF803301BF0ABFFB0FA80F0AE
:10992000400903B05DF804FB228600202586002054
:109930002DE9F04104468CB00D464FF016080F4F4C
:1099400004A914FB08F62846FFF7F2FE06F10F0003
:109950002946072238441BF09CFF224608496846E6
:1099600004F01EFC4246B919684602F0CDFB0548DA
:10997000FFF77EFF0CB0BDE8F08100BF2586002018
:1099800078AF04003002002037B50E4B1C780E4B28
:10999000162202FB04340F340025072269462046B4
:1099A0000095CDF803501BF064FF48B121462846CE
:1099B00006F010FD20B11CF0F4FD012003B030BD15
:1099C0000020FBE72286002025860020F0B58DB020
:1099D000FFF794FF044610B9FFF7D6FF00B9022441
:1099E000204D287804EB0010112805DC02282DD02A
:1099F00010280AD0002405E0202806D012284FF0B5
:109A000000040AD020460DB0F0BD06F0B3F80023E4
:109A10002B7004460028EDD0F4E706F0ABF82C706C
:109A200004460028EED1104F0FCF02AE0FC63B68A0
:109A30000E49336004220094234602A806F08CF8F5
:109A400004460028DED102232B70D3E7064E0FCE4A
:109A500007AC0FC433682360002304490093042239
:109A600007A8EBE723860020F0970400189904006C
:109A700030B591B005461CF0B1FD08A90446FFF7CA
:109A800057FE01A9284606F09FFD9DF80530012BE1
:109A900005D1FFF733FF214618B905F0AFFB11B030
:109AA00030BD034B1878FFF743FFFFF78FFFF6E752
:109AB0002286002030B58BB00D4604461CF08EFD8A
:109AC00002A9FFF735FE104B00221A701DB1FFF7F7
:109AD0007DFF0BB030BD0D4A106851686B4603C363
:109AE000694620461CF0CDFD022120461CF093FC67
:109AF000FFF76CFF2046FFF7D3FE0028E9D00448AB
:109B0000FFF7B6FEE5E700BF2386002004980400B7
:109B1000300200207FB5002005F0E2FD044668BB5E
:109B200002F054FC174802F087FB044630BB16498C
:109B300016481FF0CBFA164802F020FB154802F039
:109B40001DFB2546E8B20021013505F057FB0A2D23
:109B5000F8D1114E00252A463146684604F020FB14
:109B6000013568461AF04CFA052DF4D10B4806F081
:109B700043FB0B4806F086FEFFF728FF204604B0A3
:109B800070BD00BF180200201D970200280F0020A2
:109B900088AF04008CAF040078AF0400FC01002003
:109BA00048020020034B1878034B162202FB0030BA
:109BB0000F307047228600202586002013B504460A
:109BC00083682B21DB689847A8B9A3686A461B699C
:109BD0002B212046984770B9084C009B22789A4266
:109BE00009D0D8B2207001F0E5F920B92078FFF74C
:109BF000D3FC19F0C3F802B010BD00BF938600205B
:109C0000014B1868FFF7DABF0C26002013B50C488B
:109C100017F0F2FD0B4A106070B1FFF7CFFF04465A
:109C200038B94FF4F01200230748CDE9002318F0AB
:109C300085FF204602B010BD6FF01204F9E700BFA7
:109C40009EAF04000C260020400B00200949BFF302
:109C50005B8F51E8003F43F0010241E800200028FB
:109C6000F7D1BFF35B8FDB0703D4034808391FF03C
:109C70006BB87047780200202825002010B50A48EC
:109C80000A4C17F0B9FD206058B1094B09494C2224
:109C900015F056FA20681EF0B8FB074801F0B4FF33
:109CA00008B16FF0150010BDA6AF0400102600200B
:109CB00038990400ACAF0400519D0200014818F02F
:109CC00035BC00BFC00C002038B5144B1B780446CF
:109CD0000D460B2B0BD8DFE803F01E1E0A0A1E06EA
:109CE0000A0A0A0A0A1EBDE838401AF0AAB84FF458
:109CF000767200230A4818F03FFC0A4821460068A3
:109D000000232A461EF08BFB044610B1044818F0CD
:109D10000DFC204638BD6FF01204FAE7C50900209B
:109D2000C00C002010260020084B1B78042B0AD002
:109D300004D8022B34BF0120022070470B2B14BF24
:109D40000220002070470020704700BFC509002096
:109D500008B5054B1870FFF7E7FFFFF729FCBDE8D2
:109D6000084019F00BB800BFC50900201FB54C24EE
:109D70000294044C0194BDF8184000941DF0DAFDE3
:109D800004B010BDF8AF040008B504490448052329
:109D90004FF4007218F0ECFC002008BDC08E0020CB
:109DA000580F0020014600F10803BFF35B8F53E812
:109DB000002F42F0010043E8000CBCF1000FF6D187
:109DC000BFF35B8FD30702D401481EF0BDBF7047BD
:109DD000580F0020F0B5134E134F89B00022002316
:109DE0006946304617F0F0FE054608B109B0F0BDEF
:109DF00019F03AF904460028F8D01822294602A89A
:109E00001BF072FD08230DEB030120460397CDF8EC
:109E100010D0ADF8143008F083F820461CF0C1FBD8
:109E2000DCE700BF580C0020C09904002DE9F04188
:109E3000134FDFF850808AB001AE00220023314674
:109E4000384617F0C1FE054610B10AB0BDE8F081F2
:109E500019F00AF904460028F7D01822294604A868
:109E60001BF042FD0C2304A92046CDE90586ADF880
:109E70001C3008F055F820461CF093FBDDE700BFCE
:109E8000300C0020249A040037B5054640F6CD4238
:109E9000014600230C4817F045FE044678B110F146
:109EA0000B0F09D1002200236946074817F08CFEEA
:109EB0002846FFF7E9FF0446204603B030BD0348BB
:109EC000FFF770FFF8E700BF580C002030030020B8
:109ED00030B5054685B040F6CD42014600230C481A
:109EE00017F020FE044678B110F10B0F09D10022C3
:109EF000002301A9064817F067FE2846FFF7E8FF90
:109F00000446204605B030BD0248FFF74BFFF8E796
:109F1000300C00202403002008B5FFF7CBF9094AD4
:109F2000127822B1012A07D06FF0220008BDBDE8E7
:109F300008400921FFF7C8BEBDE808400130FFF71F
:109F4000A3BF00BFCA09002008B5FFF7B7F9094A47
:109F5000127822B1012A07D06FF0220008BDBDE8B7
:109F600008400D21FFF7B0BEBDE808400130FFF703
:109F7000AFBF00BFCA09002002490348012202F016
:109F8000C3B800BF9986002044B0040010B502F0A9
:109F90001DFA074802F050F9044630B90548064951
:109FA0001FF094F8054802F0E9F8204610BD00BF04
:109FB0003C030020F00F0020799F020058B00400FD
:109FC00038B5FFF7E1FC98B1FFF7AEFE022815D1D6
:109FD0000B4B1C780B4D2B78A34208D0FFF732F9BE
:109FE000FFF760F9FFF798FFFFF7AEFF2C7038BD61
:109FF000FFF79AFE841E18BF0124EBE70124E9E76E
:10A0000099860020CA09002070B50C4615460A49F9
:10A0100000221E4619F0F8FF50B1012C09D1074962
:10A0200022463046A847002802DDFFF7C9FF00207E
:10A0300070BD6FF01500FBE74EB00400998600205C
:10A040000148FFF75FB800BF62B0040030B50A4CAA
:10A050000A44914200D130BD11F8013B5840030938
:10A06000E35C83EA0013DDB2C3F30313E05C80EA30
:10A070000510C0B2EDE700BF68B004002DE9F04F55
:10A0800087B00F461946109B9DF844B09DF848A034
:10A090001F4C06461425104698464FEAE37950EACD
:10A0A000010319D1142D139C14BF013530232C4406
:10A0B00008BF8DF81430152C1BD0153C002C1ADC71
:10A0C0001DF8050039460135B047152DF8D1002C93
:10A0D00019DC07B0BDE8F08F42464B46FCF710F89C
:10A0E000A25C0DF8052084460B4660461946013DEA
:10A0F000D5E70024E4E7BBF1000FE1D03946504634
:10A10000B047013CDAE739465046B047013CDEE74C
:10A1100078B004000B6801330B60014B1B681847D3
:10A12000540300202DE9F04F002687B005468B46EA
:10A130001C4602F1FF3A4FF0FF3837464FF0000956
:10A1400007E0B9F1000F0BD1252800F00A8159462C
:10A15000A8471AF8010F0028F3D107B0BDE8F08F27
:10A160007A280AD8622810D8302851D044D8252817
:10A1700000F0F5802D2800F0FB8059462520A847E7
:10A180009AF800005946A847D8E7A0F16303172BB7
:10A19000F3D801A252F823F057A3020059A20200FB
:10A1A0007BA102007BA102007BA102003BA2020076
:10A1B00059A202007BA102007BA102003BA2020087
:10A1C0007BA102007BA102007BA10200D3A20200BE
:10A1D0007BA102007BA102001FA302007BA1020061
:10A1E00059A202007BA102007BA1020001A2020091
:10A1F0007BA102003BA20200392815D95828BCD106
:10A200009AF80030702B6ED154F8042B002375E0BF
:10A21000B8F1000F0BDA002F00F0AC80A0F130088D
:10A22000002F08BF022794E7B8F1000FF6DB0A23DE
:10A2300003FB0808A8F13008F2E7682803D1682E6C
:10A2400006D1482685E76C2802D16C2E00F0948058
:10A25000002E92D106467CE77A2E06D1A14659F807
:10A26000042BD317752823D10FE06C2EF6D04C2E7B
:10A2700005D1073424F00709F9E80223F2E775282D
:10A28000226804F1040912D10023F81E18BF01202E
:10A29000012F0CBF3024202401900A20CDE9024870
:10A2A000009059462846FFF7E9FE4C4646E7D3178B
:10A2B000002A73F10001E8DA59462D20CDE9042384
:10A2C000A847DDE90423524263EB430308F1FF385A
:10A2D000DBE759463020A84759467820A8474FF079
:10A2E000080801278CE76C2E8ED04C2E8CD1E31DF4
:10A2F00023F007031C465B6854F8082BF81E18BFB0
:10A300000120012F0CBF30212021CDE9021810219E
:10A310000190009128465946FFF7B0FE0EE754F829
:10A32000043B99464A4619F8010B78B9032F25D109
:10A33000A2EB0309A8EB0909B9F1000F7FF7FEAE04
:10A3400059462020A84709F1FF39F5E759460493FB
:10A35000A847049BE6E754F8040B594613E759460F
:10A3600011E74E464F464FF0FF384FF00109F0E637
:10A370000327EEE60127ECE64C26EAE68146E8E60E
:10A3800007B50B46002102460191034801A9FFF7DA
:10A39000C9FE03B05DF804FB15A1020030B585B01D
:10A3A000CDE90101044600250548039501A9FFF701
:10A3B000B9FEDDE902309842B8BF255405B030BD82
:10A3C000613204002DE9F84FB0F8189019F0080830
:10A3D000044693460DD001290CBF49F0100949F0FD
:10A3E0002009A0F818908BF31188BFF36F8FBDE898
:10A3F000F88F09F00709022907D1204618F05DFF00
:10A400000028F0D00128238B50D16769218B002FC1
:10A4100015DA256821F00701C4E9008841F001013F
:10A4200021830026218B01F0070ACA4502D0A368C8
:10A43000002B5CD10DB9002E74D0002358E001F040
:10A4400007035A1F012A20D821F00701062B25688F
:10A4500089B2C4E900880CD1002D2B4638BF0023F7
:10A460002BB1628B1B6801326283002BF8D141F063
:10A4700002012183204618F020FF06460028D1D093
:10A48000238B43F020032383CBE7042B0CD121F053
:10A49000070189B22183204618F00FFF05460028E6
:10A4A000BFD041F0200121830025BAE7032809D15C
:10A4B000226923F00703166843F00603238300256F
:10A4C0002F46AFE7042806D1226923F00703566818
:10A4D00043F00403F2E7052806D1226923F00703BD
:10A4E000966843F00503E9E700252E46E8E70123D7
:10A4F00041F0080121838BF31188BFF36F8F03BBF9
:10A50000002D33D116B121492046B0474FF020032A
:10A51000EFF3118B83F31188BFF36F8F238B23F03D
:10A5200008032383238BDA0628D523F01003238323
:10A530000121B4F8189009F0070900297FF45BAFF6
:10A5400051E7A1680029DBD00B68D1F804B0002BDB
:10A5500038BF0023994652463B462046D847B9F1BA
:10A56000000FCDD0D9F800304946EEE729463B46EA
:10A57000524620462D6818F0BCFEC1E713F02001BA
:10A580001EBF23F0200323830221D2E71F330400E0
:10A590002DE9F04FA1B01E46002303908946029397
:10A5A000134613F8010B069358B1252800F081805B
:10A5B0004946039B9847013040F04A844FF0FF33EF
:10A5C0000293029821B0BDE8F08F2B2D65D05CD8A6
:10A5D000202D65D0232D66D0002DF2D0CDF8188027
:10A5E000DDF81880A44818F8015B29461BF011F922
:10A5F0000028EAD12A2D63D156F8043B0793002B9B
:10A60000BFBF5B42079301230D93069B98F8005050
:10A6100003F102082E2D78D198F800302A2B71D141
:10A6200056F8044B08F1010818F8015B93482946D5
:10A630002F461BF0EEF800286AD04346682F13F827
:10A64000015B069307D1682D05D108F1020398F844
:10A65000015006934827782D08D8572D5CD8252D12
:10A6600000F0F28300F2A280002DAAD0039B49469D
:10A67000252098470130A1D0039B4946284698479A
:10A6800001309BD0029B0233E4E32D2D0ED0302D00
:10A69000089B08BF01230893A0E7012309939DE7C6
:10A6A00001230C939AE74FF0010A97E701230D93DA
:10A6B00094E7002308930C9309930D939A468FE730
:10A6C000A5F13003092B0790A4D80A22DDF81880E1
:10A6D00018F8015BA5F13003092B9BD8079B02FBFF
:10A6E0000355A5F13003CDE90683EFE701FB043400
:10A6F000303C9046424612F8013BA3F13000092855
:10A70000F4D991E700240A21F4E74FF0FF348DE7F4
:10A71000CDF8188007469EE7A5F15803202BA5D851
:10A7200001A252F823F000BFADAD02006DA60200F9
:10A730006DA602006DA602006DA602006DA60200C5
:10A740006DA602006DA602006DA602006DA60200B5
:10A750006DA6020081A8020057A90200B9A7020055
:10A76000B9A70200B9A702006DA6020057A902000E
:10A770006DA602006DA602006DA602006DA6020085
:10A7800039AD0200ADAD020063AD02006DA602005E
:10A790006DA6020085AD02006DA60200ADAD0200FF
:10A7A0006DA602006DA60200ADAD0200A5F1450345
:10A7B000DBB2022B3FF65AAF073626F007031946E5
:10A7C000F1E80223D80240EA5250D60220F00040BD
:10A7D00004960590DDE90467002A0191C3F30A514C
:10A7E00073F10003CDE9146780F2E5802D238DF825
:10A7F00064300DF1650740F2FF73994240F0F68036
:10A80000DDE904120A43A5F1410507F1030340F015
:10A81000E280192D00F2D98049223A704E227A70D6
:10A820004622002419AEBA70FC709B1BA246A346B8
:10A83000099A002A40F07D820C9A002A40F0798221
:10A840009DF86480A8F12D02D2F1000848EB0208BF
:10A850000BEB0A0633441E1920AB434413F81C3C8F
:10A86000303B092B00F2FE82089B002B00F0FD829A
:10A87000079B19AF9B1B14E089B004008FB0040044
:10A8800032464FF0000852F8043B01928DF86430D4
:10A890000126444619AF04EB080300249B1BA24683
:10A8A000A34623EAE3739A190892079A9919551A4D
:10A8B0000D9A12B9002D00F3ED8207EB0802BA429F
:10A8C00040F0EA82013B80F0F582A6EB0806BBF17E
:10A8D000000F10D0387807EB0608A0F13003092BE1
:10A8E000A8EB070640F2F182D846B8F1010880F0E3
:10A8F000F582A6EB0B06BAF1000F16D007EB06089F
:10A9000017F801BB039B49465846984701303FF46E
:10A9100055AEBBF12E0FA8EB0706F1D1D046B8F12A
:10A92000000F00F3E482A6EB0A0694B1387807EB37
:10A930000608A0F13003092BA8EB070640F2E282DB
:10A940002E2800F0DF82A046B8F1000F00F3E3826A
:10A95000361B3E44F2E23568331D002D01931CDAAC
:10A960002D238DF8643069420DF1650630460A22C8
:10A9700018F0FFFF099B064419A8361A002B40F077
:10A980006C820C9B002B40F068824FEAD578002C3B
:10A9900080DA0024A246A34666E7099B23B12B2355
:10A9A0008DF864302946DFE70C9B0BB12023F7E7D5
:10A9B000294619AEDAE7099B0BB12B2317E70C9B4D
:10A9C0000BB1202313E719AF15E769223A706E2205
:10A9D0007A70662225E7192D99BF4E2241216E22F9
:10A9E000612194BF3A703A7079701AE7049B059818
:10A9F0000B430E93CB1703430F93DDE90E23462D34
:10AA000008BF6625134300F00781002900F09F80EE
:10AA1000159B43F00043A1F2FE381593002618F170
:10AA2000020FC0F2A880B8F1000F00F3D48014A880
:10AA300008F1010818F0C1FFB8F1040FF7D1002C9C
:10AA400005F0DF03B8BF0624472B40F0EE80F11C71
:10AA500002DBB44280F2E380023DEDB2002C00F054
:10AA6000EA80013CBAF1000F40F0E580002CD4BF31
:10AA70004FF000084FF00108662D40F0DE8014EB27
:10AA8000060B4FF0660500F1DB80BBF1100FA8BF8D
:10AA90004FF0100B1023139300224FF00063CDE909
:10AAA0001623BBF1010B80F0CE80149B169A1799E8
:10AAB0009B18159A41EB0202CDE9143202F0704363
:10AAC000109300231193DDE91023134306D014A83B
:10AAD00018F085FF14A818F070FF0136662D40F0BD
:10AAE000CF80002E40F3B680139B002B07DD13A907
:10AAF00014A818F09DFF013E07F8010BF4D1B346EE
:10AB00003B460026BAF1000F01D1002C15DD2E22A4
:10AB100003F8012B002E00F0AE80002C40F3AD8036
:10AB2000C6F1000AA245A8BFA246A4EB0A04002C65
:10AB300003DD139A002A00F39480B8F1000F40F06F
:10AB4000B480002219AE1A709B1B71E60139049B78
:10AB5000DB180493059B5B410593DDE90423002A80
:10AB600073F10003F2DADDE90423CDE914234FE7A2
:10AB700014A818F022FFDDE9142C0023CDF828C01A
:10AB80000B93DDE90A01002908BFB0F1333F08F15A
:10AB90000108EDD20520A2FB002300FB0C33CDE918
:10ABA0001423013E4FF0000E00214FF0000C6FF017
:10ABB000004B8C4508BF9B4506D2BEF1000F3FF409
:10ABC0002EAFCDE914232AE792185B4108F1FF3834
:10ABD0004FF0010EE8E714A818F001FFDDE91410AA
:10ABE00008F1FF3801364FF0000E00234FF0000C43
:10ABF0006FF0004B9C4508BF834506D2BEF1000FA5
:10AC00003FF411AFCDE914100DE74918404108F1A8
:10AC1000FF384FF0010EE8E70026B04607E7A41B17
:10AC2000BAF1000F04D1662520E74FF0000823E7B2
:10AC30004FF0000823E74FF0000804F1010B24E770
:10AC40004FF0000B26E716A818F0C9FE16A818F05A
:10AC5000B4FE26E73B46302203F8012B4FF0000BF1
:10AC600050E713A914A80A9318F0E2FE0A9B013CCE
:10AC700003F8010B5BE7B24659E74FF0000A5CE7C7
:10AC800013A914A818F0D4FE3028387018BF06F1A4
:10AC9000FF36BAF1000F37D1002C35DC7B1CB8F140
:10ACA000000F43D04FF0000BDA46194613F8012D80
:10ACB000302AFAD02E2A18BF0B46002405F0DF02F6
:10ACC000452A7FF43EAF002E1946BABF76422D22A8
:10ACD0002B22632E01F8025B5A7008DD642096FB7C
:10ACE000F0F202F13005D91C9D7000FB12660A20BB
:10ACF0000B4696FBF0F200FB126602F1300530368F
:10AD000003F8025B4E701CE72E22BB1C7A70002CED
:10AD1000C5DD139A002AC2DD13A914A80A9318F0FE
:10AD200087FE0A9B013C03F8010BF0E7C346C246CD
:10AD3000C4E74FF001088BE53246682F52F8043B18
:10AD4000019206D06C2F09D0482F07D1029A1A70B1
:10AD500001E0029A1A80019E069A21E4029A1A6082
:10AD6000F9E747F63003ADF864303346102253F864
:10AD7000041B01930DF1660018F0FBFD4FF0020873
:10AD8000861C04E63346002C53F8047B0193B8BFBD
:10AD90006FF000440026B44203D126460024A046AA
:10ADA00079E5BB5D002B5BD00136F4E7331D6F2DD9
:10ADB0003168019319D1BAF1000F08D030238DF812
:10ADC000643079B98DF8651088460126DFE519AD44
:10ADD0002846082218F0CDFD19AEAD1B2E184FF0F5
:10ADE0000008D4E50DF16505F2E7752D05D10A22BD
:10ADF00019A818F0BEFD0646F1E7BAF1000F11D010
:10AE000047F63003ADF864300DF16607102238467E
:10AE100018F0AFFD582D07D019AEBF1B3E184FEAF2
:10AE20004A08B4E519AFF1E719AA12F8013BA3F1FA
:10AE30006101192903D8203B02F8013CF5E712F81B
:10AE4000013C002BF1D1E7E749462846FFF7B1BBAB
:10AE5000029B0133CDE901637DE74FF0010896E5E0
:10AE60001C469CE719AF00231DE5089B19AF1AE5A6
:10AE700009934946039B0792202098470130079A7F
:10AE8000099B3FF49BAB013AF2D20299294402910B
:10AE9000154612E52A46F6E7099317F8010B039BBE
:10AEA0000792494698470130079A099B7FF407ADFE
:10AEB000FFF784BB07934946039B30209847013036
:10AEC000079B7FF4FFACFFF779BB039B494698478C
:10AED00001303FF473AB17F8010FFEE4039B4946C2
:10AEE0003020984701307FF400ADFFF767BB039B2C
:10AEF000494630209847013008F1FF387FF40FAD04
:10AF0000FFF75CBB039B4946984701303FF456ABC3
:10AF100017F8010F0DE5039B494630209847013093
:10AF200008F1FF387FF410ADFFF748BB17F8010BAD
:10AF3000039B4946984701303FF440ABF31B002B7D
:10AF4000F4DC029B089A002D134402937FF703AFB1
:10AF50002C4606E0039B49462020984701303FF4E9
:10AF60002DAB013CF6D2029B2B440293F3E600BFCB
:10AF70001FB507240294044C0194BDF818400094B6
:10AF80001CF0D8FC04B010BDCB09002010B5084C53
:10AF900086B024788DF81740012402940DF117042F
:10AFA0000194BDF8204000941CF0C4FC06B010BD14
:10AFB000D209002000B589B064288DF8070019D89F
:10AFC0000E4B18221870002102A81AF08DFC0C4BB1
:10AFD00003930DF10703049302A901230020ADF8A8
:10AFE000143006F09DFF10F1390F08BF002009B0A2
:10AFF0005DF804FB6FF01500F9E700BFD2090020EF
:10B00000309B04002DE9F7430E4680460821C06AB4
:10B0100018F0B8FD3468124B241A0746346004EA6D
:10B0200003059946AC4203D8002003B0BDE8F08385
:10B0300008236A462146404618F032FD0028F4D124
:10B04000684618F08AFD40B9BDF80230BDF804200A
:10B05000346005EA090513441D44E41BE2E700BF20
:10B060000000FFFF2DE9F04F054695B0C06A0821AA
:10B0700018F088FD6B681B0C1B04804603A9E88947
:10B08000039318F089FD039BA98906AE1944A1EB2F
:10B090000801082332462846049118F001FD041ED9
:10B0A000C0F29980EB6A1A790023F15C914240F07A
:10B0B00081800133082BF8D10399284618F077FDD9
:10B0C000044688E0049BBDF81A201B0C1B041344A3
:10B0D0000493DFF80CB1DDF810A008AA04A92846F3
:10B0E00018F08DFD0446002875D108A818F035FD2C
:10B0F000002836D16B6805930AAA05A92846059E43
:10B1000018F07DFD0446002865D1BDF82820BDF863
:10B1100020309A4228D06A68059B9A42ECD1564565
:10B120001FD1BDF82430E3B1BDF822300AEA0B0785
:10B130001F4408A8AB68ADF8223018F01AFDEB6A7E
:10B14000BDF824901E68764206F020030193B9F101
:10B15000000F0FD108A9284618F0E9FD0446002881
:10B1600039D1C245B7D1A7E70AA818F0F6FC0028E4
:10B17000D1D1D4E7019B4B4528BF4B460CAA394699
:10B1800028461E4618F08CFC044620BB36B1A96840
:10B1900033460CAA284618F082FD0446E86A314678
:10B1A00018F0F0FCAA680244AA60A4B9A9EB060949
:10B1B0003744CCE70498A0EB0808304618F0CDFCE3
:10B1C00000283FF47FAF04A92846FFF71BFF044681
:10B1D00000283FF47EAF204615B0BDE8F08F00BFD9
:10B1E0000000FFFF2DE9F047044686B00D4600F150
:10B1F000140630461DF029FD284616F0FDFAA0621F
:10B20000002800F0D48083681B699847E06228B961
:10B210006FF01505284606B0BDE8F087A06A836880
:10B220001B6998470368013B1F2BF1D8A06A21686E
:10B2300003AA1DF067FA0028EAD1A389002BE7D002
:10B24000049AB3FBF2F502FB1535002DE0D1E3893A
:10B25000012BDDD9E36A009593F804904FF0FF329B
:10B260004FF0FF33304616F00DFDE06A082118F06C
:10B2700089FCA8460746E3891FFA85FA534552D848
:10B28000E389434500F0908053450BD10099082392
:10B290004A46C91B204618F03BFC18B9E0896946AC
:10B2A00018F07AFC009BDA1B62604F4A1340A360DF
:10B2B0009046D4E9011399420ED3082301AA2046EF
:10B2C00018F0EEFB054628BB01AB13F8012B9145A6
:10B2D00070D10135082DF8D1D4E901318B4207D95D
:10B2E0005B1A4A46204618F013FC051E12DB3DD1BE
:10B2F0006368DFF8F480E08903EA08036946009395
:10B3000018F04AFCA38900994A46204618F000FC30
:10B31000051E31DA304616F02DFD002D7FF47AAF90
:10B320000123237476E7A1892B04C91B13FA81F149
:10B330004A4608232046009118F0EAFB78B1E089DC
:10B34000694618F029FC08F10108009908234A46CB
:10B3500020461FFA88F818F0DBFB002890D0013552
:10B3600089E7002D3CD06FF01C05D3E7E26AA368A3
:10B3700012681344A360AFE7CCD06168204618F090
:10B3800016FC05460028C5D16068A38900EA0800BC
:10B390001844A0EB4700606000EA0800A060204667
:10B3A000FFF760FE0546B5E76FF02005B2E76FF0E6
:10B3B00005052FE701A818F0D0FB626880B9009B53
:10B3C000BDF80600BDF8085003EA08030344A36073
:10B3D000E06A294618F0D6FB03449342A360C0D02C
:10B3E000D21B626065E700BF0000FFFF2DE9F04F50
:10B3F0001E46037C89B0044689469046002B00F027
:10B40000C080C36A0821184618F0BCFB314682464A
:10B41000184618F0B7FBA3890AEB4A029B1AB342FD
:10B420000746C0F0B1801EB1B8F1000F00F0AC804B
:10B430006368039304AA03A92046DDF80CB018F052
:10B44000DEFB0546002865D1BDF810304B4505D020
:10B450006268039B9A42EDD1DEB95BE004A818F064
:10B460007CFB0028F4D1BDF8143086B1B34210D172
:10B47000BDF812004FEA1B4109040144334642461D
:10B48000204618F01BFB002803DC054642E0002B99
:10B4900040D0002F42D104F1140A4FF0FF324FF098
:10B4A000FF335046DFF8ECB016F0ECFB0022E389E6
:10B4B0009A4263D0D4E901317818834231D3FF2313
:10B4C00006A8ADF81890ADF81A10ADF81C608DF80C
:10B4D0001E3018F04EFB36B1A16833464246204676
:10B4E00018F0DDFB0546E06A314618F04BFBA36817
:10B4F0000344A360002D4AD106A9204618F017FC8A
:10B500000546002843D133460193504616F032FCDD
:10B51000019B1D46284609B0BDE8F08F5744BFB2D5
:10B52000B9E7E06A0192082118F02CFB4FF6FF7191
:10B53000ADF818100021ADF81C101918ADF81A104C
:10B54000A18903EA0B030B44181A606006A818F0DF
:10B5500010FB06A9204618F0EAFBE089211D18F02F
:10B560001BFB636803EA0B03A3602046FFF77AFD29
:10B5700003460028C8D1019A013298E76FF01B03F7
:10B58000C2E76FF00C05C5E76FF01505C2E72B4663
:10B59000BAE700BF0000FFFFF0B5104B104C114D93
:10B5A000E41AA4106C43104DD5F824C00025A54220
:10B5B00002D16FF02200F0BD5F6867450AD31E69B3
:10B5C00046B197F802E00779BE4503D13346BDE89E
:10B5D000F040184701352433E9E700BFD40E0020BE
:10B5E000F80E0020398EE338142600202DE9F041B2
:10B5F000124B134C134DE41AA4106C43124DD5F8A2
:10B6000024C00025A54203D16FF02200BDE8F081DF
:10B610005E6866450ED39F6967B196F8028090F820
:10B6200004E0F04503D13B46BDE8F0411847767988
:10B63000012EF8D001352433E4E700BFD40E0020FA
:10B64000F80E0020398EE338142600202DE9F84347
:10B650000F4C104B17461B1B0F4A9B1005460E46FE
:10B6600002FB03F94FF00008C14502D16FF0220040
:10B670000BE063691BB908F101082434F4E73A468A
:10B680003146284698470028F5D1BDE8F88300BF29
:10B69000D40E0020F80E0020398EE33807B58378E9
:10B6A0008DF800300379427943EA0223ADF8023085
:10B6B000C378684603F003038DF8043001F0F8FD09
:10B6C00010F1450F04D018B1002003B05DF804FB61
:10B6D0009DF8000001F06CFE10F1450F01D000282C
:10B6E000F2D1024B012083F8B900EEE714260020C6
:10B6F0002DE9F14F254B264C264F1B1B9B105F431A
:10B70000031F012B05460E4625D8234B93F8B9207D
:10B71000984602B300F068FC042D1CD14FF00009DC
:10B720004F4515D0D4F820B04FF0000A227F5FFAC1
:10B730008AF39A4203D809F101092434F0E70BEBAC
:10B74000C3030AF1010A187901F056FE0028EDDA68
:10B75000002388F8B9300E4C4FF00008B84508D1E6
:10B760000D4B1B6A7BB13146284601B0BDE8F04F56
:10B770001847E3681BB1324629462046984708F12E
:10B7800001082434EAE701B0BDE8F08FF80E00208C
:10B79000D40E0020398EE338142600202DE9F04F16
:10B7A000B04DAB6985B006460C46904663B9337818
:10B7B00003F01F03012B00F08880022B00F0D180E2
:10B7C00043B16FF0150002E098470028EFD105B0B3
:10B7D000BDE8F08F72787088D8F80030092AF0D868
:10B7E00001A151F822F000BF11B80200C3B7020056
:10B7F000C3B70200C3B70200C3B702001DB80200FE
:10B8000027B80200C3B7020055B802005FB80200B3
:10B810000020012258701A7002236FE0C0B201F0BC
:10B8200037FD0020D3E7020A131F012BC9D9072ACD
:10B83000C7D86B6A0021C0B21D78002DC1D05E78D8
:10B84000964203D1884200F0F58001312B44F3E7A2
:10B850001B78F5E095F8BA201A700123F0E0C7B222
:10B860008DF80F7077B14FF0FF086C6A0026C14663
:10B87000237853B9EB691BB10DF10F0103209847F1
:10B88000002E9ED085F8BA70CBE76378042B0DD0DC
:10B89000052B0ED0022B06D194F805809DF80F30B1
:10B8A000434508BF012623781C44E1E794F8039040
:10B8B000F9E79DF80F304345F5D1B9F1000FF2D10A
:10B8C0002046FFF7EBFE0646EDE795F8BA30002B71
:10B8D0003FF477AF6F6A96F804903B4619780029D9
:10B8E0003FF46FAF5A78022A03D11879484500F225
:10B8F000A9800B44F2E7002018700123236066E75B
:10B9000096F802B0FF26B2464FF000083B783BB9EC
:10B91000EB6913B14146072098470020206056E7A5
:10B920007B78042B04D0052B0BD03B781F44EDE72C
:10B93000BE7897F803A0B145F7D1D34508BFB84604
:10B94000F3E7B145F1D1D34507D0B878019000F0C5
:10B9500023FB019801F050FDE7E73846FFF79EFE14
:10B96000E3E73079D8F800808DF80F0030F0800CD4
:10B970001CD03D4B3D4A3E49D21A92104A434FF0EB
:10B98000000E72457FF61DAF196A93F81C900027D0
:10B9900004395FFA87FACA4503D30EF1010E243346
:10B9A000EFE7013711F837A08245F2D17378012B08
:10B9B00013D0032B28D0002B7FF403AFBCF1000F72
:10B9C00004D095F8BA30002B3FF4FBAE414601F0AD
:10B9D000D5FC002088F801001EE77388002B7FF457
:10B9E000F0AEBCF1000F04D095F8BA30002B3FF454
:10B9F000E8AE01F0A5FCEB69002B3FF412AF0DF1AE
:10BA00000F01092098470CE77388002B7FF4D9AE0B
:10BA1000BCF1000F04D095F8BA30002B3FF4D1AE42
:10BA200001F068FCEB69002B3FF4FBAE0DF10F0158
:10BA30000820E7E7022AC8F800307FF409AF5B88E6
:10BA40002360EEE67078D8F800300A283FF453AF50
:10BA50000B283FF455AF00287FF4B3AE1870587030
:10BA60002260B4E614260020D40E0020F80E002038
:10BA7000398EE33808B509480378C3F341130A3314
:10BA800050F823303BB100F1080200F11001984753
:10BA9000C043C00F08BD1846FCE700BF14260020B5
:10BAA00013B50D4C237D7BB9E268A168019201AB0F
:10BAB000802018F0AEF90199A268E3680A445B1A85
:10BAC000A260E36002B010BD00231A461946802030
:10BAD000237501F0AFFCF5E71426002030B585B0E2
